:100A00002EC028C027C026C025C024C023C022C0B5
:100A100021C020C01FC01EC01DC01CC01BC01AC0EA
:100A200019C018C017C016C015C014C013C012C01A
:100A300011C010C000000000000000000000000015
:100A400024C069C02EE3A0E0BEE301C01D92A03027
:100A5000B207E1F7FFCFE0E2F0E009950895809159
:100A6000033F833041F475D080E056D0E0E4F4E0F9
:100A700084E0868381838091033F853029F480E080
:100A80004BD084E08093460408950F931F93CF9337
:100A9000DF9300D000D0CDB7DEB7182F022F813002
:100AA00051F018F08230B9F021C0FB01808134D0C0
:100AB00040E080E01DC0FB018081882331F084E0AC
:100AC0008093450440E080E013C084E080934604B6
:100AD00040E080E00DC081E4898382E48A8383E47E
:100AE0008B8384E48C8344E080E002C040E081E0BA
:100AF000011109C021E0811101C020E0BE016F5F3A
:100B00007F4F812FA8DF2496CDBFDEBFDF91CF912D
:100B10001F910F9108950895811101C081E08E3FCA
:100B200008F08DEF90E0E0E8FAE021E030E020A767
:100B300031A79C012F5F3F4F22A733A7029684A7BE
:100B400095A781E291E086A797A78481816084833D
:100B5000089588ED84BFE0E8FAE080E3828B80931B
:100B6000010410828081816080838FE7D5DF089542
:00000001FF
