:020000021000EC
:10000000DDCCBBAA0000FFEE0100444D580000000B
:1000100000000000000000000000000000000000E0
:100040000000000000000000290601002506010054
:1000200000000000000000000000000000000000D0
:1000300000000000000000000000000000000000C0
:10006400980B0120B1050100AD050100AD050100AB
:10007400AD050100AD050100AD0501000000000063
:10008400000000000000000000000000AD050100B9
:10009400AD05010000000000AD050100AD05010043
:1000A400AD050100AD050100AD050100AD05010080
:1000B400AD050100AD050100AD050100AD05010070
:1000C400AD050100AD050100AD050100AD05010060
:1000D400AD050100AD050100AD050100AD05010050
:1000E400AD050100AD050100AD050100AD05010040
:1000F400AD050100AD050100AD050100AD05010030
:10010400AD050100AD050100AD050100AD0501001F
:10011400AD050100AD050100AD050100AD0501000F
:10012400AD050100AD050100AD050100AD050100FF
:10013400AD050100AD050100AD050100AD050100EF
:10014400AD050100AD050100AD050100AD050100DF
:1001540000000000AD050100AD050100AD05010082
:10016400AD050100AD050100AD050100AD050100BF
:10017400AD050100AD050100AD050100AD050100AF
:10018400AD050100AD050100AD050100AD0501009F
:10019400AD050100AD050100AD050100AD0501008F
:1001A400AD050100AD050100AD050100AD0501007F
:1001B400AD050100AD0501000000000000000000D5
:1001C400000000000000000000000000000000002B
:1001D4000000000000000000AD050100AD050100B5
:1001E400AD050100AD050100AD050100AD0501003F
:1001F40000000000AD050100AD050100AD050100E2
:10020400AD050100AD050100AD050100AD0501001E
:10021400AD050100AD050100AD050100AD0501000E
:10022400AD050100AD050100AD050100AD050100FE
:10023400AD050100AD050100AD050100AD050100EE
:10024400AD050100AD050100AD050100AD050100DE
:10025400AD050100AD050100AD050100AD050100CE
:10026400AD0501000000000000000000AD05010024
:10027400AD050100AD050100AD050100AD050100AE
:10028400AD050100AD050100AD050100AD0501009E
:10029400AD050100AD050100AD050100AD0501008E
:1002A400AD050100AD050100AD050100AD0501007E
:1002B400AD050100AD050100AD050100AD0501006E
:1002C4000000000010B5054C237833B9044B13B17A
:1002D4000448AFF300800123237010BD3044002094
:1002E40000000000300E01000C4B43B10C480D49D6
:1002F40010B5AFF300800C48036823B910BD0A4859
:10030400036833B97047094B002BF7D0BDE81040A0
:100314001847064B002BF5D0184700BF000000001B
:10032400300E0100344400205000010000000000A1
:10033400044B054A5A63054A9A6340F602721A80CE
:10034400704700BF00A000417047002070490020A2
:1003540030B4144C031D1B01E5586FF34105E550FF
:10036400E55845F00105E550030140341C44236879
:1003740013F0010FFBD10B4B043000011C181D5866
:1003840061F30E251D50195862F315511950627905
:100394006FF3010262711A5842F002021A5030BC23
:1003A400704700BF00A00041014B03EB00107047F1
:1003B4007047002011444160836042800023C36081
:1003C400437803F0E30343F014034370037843F0EA
:1003D400010303707047704703685A68012161F391
:1003E40019625A60704700002DE9F84304460E462E
:1003F400914603681A686FF341021A600768124D48
:100404000079A84780463046A847104E014640462A
:10041400B04780464846A847014640460C4B98479B
:1004240001464FF07E500B4B98474FF08F41B04739
:10043400094B984780B2B8812268136843F00203DD
:100444001360BDE8F88300BF05090100B509010088
:100454001D0B0100A1070100550C010038B505462C
:100464001446334B9A422CD0324B9A4232D0324B00
:100474009A4238D0314B9A423ED0B2F1864F44D0A2
:100484002F4B9A424AD02C6010232B712D4B2360A2
:100494002B682D4A5A602B689A68022161F38B22DB
:1004A4009A602A68936843F440739360274A284902
:1004B4002846284B98472A68136843F002031360C0
:1004C40038BD0720244B9847244A536943F480538A
:1004D4005361D8E70820204B9847204A536943F4D6
:1004E40000535361CFE717201B4B98471B4A93696E
:1004F40043F400739361C6E71820174B9847174AD3
:10050400936943F480639361BDE72220124B9847BB
:10051400124A136A43F001031362B4E723200E4B1B
:1005240098470E4A136A43F002031362ABE700BF15
:1005340000300040003400400020014100400141EF
:100544000004004384001242400001000024F4002F
:1005540090D00300ED030100650501000008004090
:100564002F2801D9032070470B2901D90220704795
:1005740000F120030B4A52F8233013F0400F01D04E
:10058400052070471346203052F8202061F30302FF
:1005940043F8202053F8202042F0400243F8202062
:1005A40000207047001C0040FEE7000008B5144B13
:1005B400144A9A4211D0144B114A9A420DD213464E
:1005C4001248801A20F00300043010440D4A52F8F7
:1005D400041B43F8041B8342F9D10D4B0D4A9A4284
:1005E4000BD213460C4AD21A22F0030204321A44E4
:1005F400002143F8041B9A42FBD1084B984708BDDD
:1006040000400020300E01002C4400202B44002028
:10061400944B002030440020934B0020950C0100A3
:100624007047000070B50546494B1860C3681B78D5
:1006340013F0010F10D12B691B7813F0010F53D164
:10064400EB681B7813F0020F04D02A69137843F087
:1006540002031370002070BD3E4B98473C4C3E4A49
:10066400697D201D3D4B98473D4B93F8B82002F01F
:10067400F00242F0020283F8B82093F8D02042F04E
:10068400010283F8D02093F8B82002F00F0242F060
:10069400200283F8B82093F8D12042F0010283F8B5
:1006A400D1202A69137843F00103137004F10D0279
:1006B400012302F8013F01339BB2642BF9D1244C8E
:1006C400002626736673C823A373E37323746374C9
:1006D400A374012384F80E32224B98473046224BF0
:1006E4009847C4F81002A6E7EB6B19211F489847F6
:1006F4000028A5D0164C201D1D4B98471D4B40F2D9
:10070400022204F10C01D4F810021B4EB04702225D
:100714000F210020194B984794F80E124A1C1444D8
:10072400237B0133DBB2FE2B0ADC2373084B93F8E3
:100734000E32042B84DD0122054B83F80E227FE761
:10074400034B1A4400201073013183F80E12EDE7B5
:100754004C440020B1050100000400436104010081
:100764000080004135030100AD0301006046002014
:10077400DD03010028040043B9030100550301000F
:1007840008B50248024B984708BD00BF50440020FA
:10079400DB03010080F0004002E000BF81F0004173
:1007A40042001FBF5FEA410392EA030F7FEA226C13
:1007B4007FEA236C6AD04FEA1262D2EB1363C1BFA3
:1007C400D218414048404140B8BF5B42192B88BF12
:1007D400704710F0004F40F4000020F07F4018BF35
:1007E400404211F0004F41F4000121F07F4118BF55
:1007F400494292EA030F3FD0A2F1010241FA03FCFD
:1008040010EB0C00C3F1200301FA03F100F00043E4
:1008140002D5494260EB4000B0F5000F13D3B0F1AC
:10082400807F06D340084FEA310102F10102FE2A1B
:1008340051D2B1F1004F40EBC25008BF20F001008B
:1008440040EA03007047490040EB000010F4000F39
:10085400A2F10102EDD1B0FA80FCACF1080CB2EBCC
:100864000C0200FA0CF0AABF00EBC250524218432B
:10087400BCBFD0401843704792F0000F81F40001D0
:1008840006BF80F400000132013BB5E74FEA4103A3
:100894007FEA226C18BF7FEA236C21D092EA030F0F
:1008A40004D092F0000F08BF0846704790EA010F89
:1008B4001CBF0020704712F07F4F04D1400028BFB6
:1008C40040F00040704712F100723CBF00F5000098
:1008D400704700F0004343F0FE4040F400007047CE
:1008E4007FEA226216BF08467FEA2363014642027A
:1008F40006BF5FEA412390EA010F40F4800070478D
:100904004FF0000304E000BF10F0004348BF404232
:100914005FEA000C08BF704743F0964301464FF06E
:1009240000001CE050EA010208BF70474FF00003CA
:100934000AE000BF50EA010208BF704711F000430B
:1009440002D5404261EB41015FEA010C02BF8446DB
:100954000146002043F0B64308BFA3F18053A3F53A
:100964000003BCFA8CF2083AA3EBC25310DB01FA81
:1009740002FC634400FA02FCC2F12002BCF1004F05
:1009840020FA02F243EB020008BF20F00100704796
:1009940002F1200201FA02FCC2F1200250EA4C00EA
:1009A40021FA02F243EB020008BF20EADC70704730
:1009B4004FF0FF0C1CEAD0521EBF1CEAD15392EA3E
:1009C4000C0F93EA0C0F6FD01A4480EA010C40021A
:1009D40018BF5FEA41211ED04FF0006343EA501074
:1009E40043EA5111A0FB01310CF00040B1F5000FB6
:1009F4003EBF490041EAD3715B0040EA010062F165
:100A04007F02FD2A1DD8B3F1004F40EBC25008BF4E
:100A140020F00100704790F0000F0CF0004C08BF6C
:100A240049024CEA502040EA51207F3AC2BFD2F139
:100A3400FF0340EAC250704740F400004FF0000347
:100A4400013A5DDC12F1190FDCBF00F00040704781
:100A5400C2F10002410021FA02F1C2F1200200FABF
:100A640002FC5FEA310040F1000053EA4C0308BF86
:100A740020EADC70704792F0000F00F0004C02BFD7
:100A8400400010F4000F013AF9D040EA0C0093F052
:100A9400000F01F0004C02BF490011F4000F013BAC
:100AA400F9D041EA0C018FE70CEAD15392EA0C0F1A
:100AB40018BF93EA0C0F0AD030F0004C18BF31F085
:100AC400004CD8D180EA010000F00040704790F05B
:100AD400000F17BF90F0004F084691F0000F91F0FF
:100AE400004F14D092EA0C0F01D142020FD193EAC5
:100AF4000C0F03D14B0218BF084608D180EA01004D
:100B040000F0004040F0FE4040F40000704740F028
:100B1400FE4040F4400070474FF0FF0C1CEAD052F6
:100B24001EBF1CEAD15392EA0C0F93EA0C0F69D052
:100B3400A2EB030280EA010C49024FEA402037D0BD
:100B44004FF0805343EA111143EA10130CF00040B4
:100B54008B4238BF5B0042F17D024FF4000C8B42A4
:100B640024BF5B1A40EA0C00B3EB510F24BFA3EB84
:100B7400510340EA5C00B3EB910F24BFA3EB910354
:100B840040EA9C00B3EBD10F24BFA3EBD10340EAAE
:100B9400DC001B0118BF5FEA1C1CE0D1FD2A3FF6F4
:100BA40050AF8B4240EBC25008BF20F001007047A9
:100BB4000CF0004C4CEA50207F32C2BFD2F1FF034C
:100BC40040EAC250704740F400004FF00003013A7D
:100BD40037E792F0000F00F0004C02BF400010F421
:100BE400000F013AF9D040EA0C0093F0000F01F035
:100BF400004C02BF490011F4000F013BF9D041EA57
:100C04000C0195E70CEAD15392EA0C0F08D1420289
:100C14007FF47DAF93EA0C0F7FF470AF084676E75C
:100C240093EA0C0F04D14B023FF44CAF08466EE735
:100C340030F0004C18BF31F0004CCAD130F0004203
:100C44007FF45CAF31F000437FF43CAF5FE700BF5B
:100C540042000ED2B2F1FE4F0BD34FF09E03B3EB22
:100C6400126209D44FEA002343F0004323FA02F04E
:100C740070474FF00000704712F1610F01D142023A
:100C840002D14FF0FF3070474FF00000704700BFB3
:100C940070B50F4E0F4D761BB61018BF002405D04B
:100CA400013455F8043B9847A642F9D10A4E0B4D3E
:100CB400761B00F0A7F8B61018BF002406D0013444
:100CC40055F8043B9847A642F9D170BD70BD00BFEA
:100CD400140E0100140E0100200E0100140E010078
:100CE400024B13B1024800F005B870470000000041
:100CF400050D0100002301461A46184600F01EB8EF
:100D040038B50A4C0A4D641BA4100AD004F1804380
:100D1400013B05EB8305013C55F804399847002C49
:100D2400F9D1BDE8384000F079B800BF300E0100B9
:100D34002C0E0100704700BF704700BF2DE9F84337
:100D44002C4D0646286898460F469146FFF7F2FF59
:100D5400294B1C68D4F84831002B3ED05A681F2A0E
:100D64001CDC02F1010E76B103EB82010124C1F80F
:100D74008890D3F8880194402043022EC3F8880158
:100D8400C1F8088123D00232C3F804E0286843F88C
:100D94002270FFF7D1FF0020BDE8F883174B0BB397
:100DA4004FF4C870AFF300800346D8B1D4F848219B
:100DB4000260002141600A46C4F848014FF0010E68
:100DC400C0F88811C0F88C11002EDCD0CCE7D3F821
:100DD4008C110C43C3F88C41D5E704F5A673C4F811
:100DE4004831BBE72868FFF7A7FF4FF0FF30BDE8A5
:100DF400F88300BF28440020040E01000000000016
:100E040000400020F8B500BFF8BC08BC9E467047FF
:100E1400E50C0100ED02010085070100F8B500BFF3
:0C0E2400F8BC08BC9E467047C9020100E3
:100E300000000000EC42002054430020BC4300208E
:100E400000000000000000000000000000000000A2
:100E50000000000000000000000000000000000092
:100E60000000000000000000000000000000000082
:100E70000000000000000000000000000000000072
:100E80000000000000000000000000000000000062
:100E90000000000000000000000000000000000052
:100EA0000000000000000000000000000000000042
:100EB0000000000000000000000000000000000032
:100EC0000000000000000000000000000000000022
:100ED0000000000000000000010000000000000011
:100EE0000E33CDAB34126DE6ECDE05000B000000D6
:100EF00000000000000000000000000000000000F2
:100F000000000000000000000000000000000000E1
:100F100000000000000000000000000000000000D1
:100F200000000000000000000000000000000000C1
:0C1250000000000000000000704B0020B7
:040000031000006485
:00000001FF
